:020000040000FA
:04000000F8EF03F022
:100600000048656C6C6F20576F726C640D0A200097
:0106100000E9
:10061200000E096E000E0A6E000E0B6E000E0C6EBE
:100622000550061007100810D8B41AEF03F01CEF9B
:1006320003F052EF03F0010E0D6E26EF03F0D89097
:1006420005360636073608360D2A08AE2BEF03F0BC
:100652002DEF03F020EF03F0D89009360A360B365F
:100662000C360550015C06500258075003580850DA
:100672000458D8A03FEF03F041EF03F04AEF03F034
:100682000550015E0650025A0750035A0850045A98
:100692000980D89008320732063205320D2E2DEF2E
:1006A20003F009C001F00AC002F00BC003F00CC055
:1006B20004F01200000E946E1780179217841680B1
:1006C20016821750D3EC03F01650E4EC03F0250E1B
:1006D200196E800E186E080E1A6E010E1B6E18C06F
:1006E2000EF019C00FF01AC010F01BC011F0B3ECDD
:1006F20003F0F0EC03F0010E016E060E026E92ECB6
:1007020003F01A0E156E5E0E146E6E0EE82EFED7F4
:10071200142EFCD7152EFAD700D07AEF03F000EF93
:1007220000F0A4EF03F0ACA299EF03F09BEF03F00B
:1007320094EF03F001C0F6FF02C0F7FF0800F5CF07
:10074200ADFF014A022A01C0F6FF02C0F7FF08000E
:10075200F5500009D8A4B0EF03F0B2EF03F094EF24
:1007620003F01200000E016E2D0E026E310E036EAA
:10077200010E046E0EC012F00FC013F0123A133ABB
:10078200F00E131612500F0B1312F00E121612C0A7
:1007920005F013C006F0076A086A09EC03F00104C9
:1007A200AF6E1200016E01A002D0AC8A01D0AC9AE9
:1007B20001A202D0AC8801D0AC9801A402D0AC84D2
:1007C20001D0AC941200016E01A002D0AB8E01D018
:1007D200AB9E01A202D0AB8801D0AB9812009EA8BA
:1007E200F5EF03F0F7EF03F0F0EF03F01200000E65
:0C07F200F86E060EF76E00015BEF03F0DE
:020000040020DA
:08000000FFFFFFFFFFFFFFFF00
:020000040030CA
:0E000000FF071F1FFF8285FF0FC00FE00F409C
:00000001FF
