:020000040000FA
:04000000EBEF03F02F
:0906000000486920616C6C0000E7
:10060A00000E096E000E0A6E000E0B6E000E0C6EC6
:10061A000550061007100810D8B416EF03F018EFAB
:10062A0003F04EEF03F0010E0D6E22EF03F0D890A7
:10063A0005360636073608360D2A08AE27EF03F0C8
:10064A0029EF03F01CEF03F0D89009360A360B366F
:10065A000C360550015C06500258075003580850E2
:10066A000458D8A03BEF03F03DEF03F046EF03F048
:10067A000550015E0650025A0750035A0850045AA0
:10068A000980D89008320732063205320D2E29EF3A
:10069A0003F009C001F00AC002F00BC003F00CC05D
:1006AA0004F01200000E946E1880189218841850E4
:1006BA00D2EC03F0900EAB6EE10E1A6E000E196EBC
:1006CA00080E1B6E010E1C6E19C00EF01AC00FF038
:1006DA001BC010F01CC011F08DEC03F0E3EC03F02A
:1006EA00570EAD6E010E016E060E026EB1EC03F0EE
:1006FA001A0E176E5E0E166E6E0EE82EFED7162EA8
:10070A00FCD7172EFAD700D073EF03F000EF00F0F2
:10071A00000E016E2D0E026E310E036E010E046E76
:10072A000E50126E0F50136E146A156A040ED8908A
:10073A001236133614361536E82E9CEF03F012C023
:10074A0005F013C006F014C007F015C008F005EC58
:10075A0003F00104AF6E1200C3EF03F0ACA2B8EFCE
:10076A0003F0BAEF03F0B3EF03F001C0F6FF02C0E3
:10077A00F7FF0800F5CFADFF014A022A01C0F6FFD4
:10078A0002C0F7FF0800F5500009D8A4CFEF03F024
:10079A00D1EF03F0B3EF03F01200016E01A002D013
:1007AA00AC8A01D0AC9A01A202D0AC8801D0AC9834
:1007BA0001A402D0AC8401D0AC9412009EA8E8EF48
:1007CA0003F0EAEF03F0E3EF03F01200000EF86E15
:0A07DA00060EF76E000157EF03F062
:020000040020DA
:08000000FFFFFFFFFFFFFFFF00
:020000040030CA
:0E000000FF071F1FFF8285FF0FC00FE00F409C
:00000001FF
